{"abi":[{"type":"constructor","inputs":[{"name":"_owner","type":"address","internalType":"address"},{"name":"_devWallet","type":"address","internalType":"address"},{"name":"_trustedSigner","type":"address","internalType":"address"}],"stateMutability":"nonpayable"},{"type":"receive","stateMutability":"payable"},{"type":"function","name":"DOMAIN_SEPARATOR","inputs":[],"outputs":[{"name":"","type":"bytes32","internalType":"bytes32"}],"stateMutability":"view"},{"type":"function","name":"END_LOBBY_TYPEHASH","inputs":[],"outputs":[{"name":"","type":"bytes32","internalType":"bytes32"}],"stateMutability":"view"},{"type":"function","name":"FEE_PERCENTAGE","inputs":[],"outputs":[{"name":"","type":"uint256","internalType":"uint256"}],"stateMutability":"view"},{"type":"function","name":"cancelLobby","inputs":[{"name":"lobbyId","type":"uint256","internalType":"uint256"}],"outputs":[],"stateMutability":"nonpayable"},{"type":"function","name":"claimRefund","inputs":[{"name":"token","type":"address","internalType":"address"}],"outputs":[],"stateMutability":"nonpayable"},{"type":"function","name":"createLobby","inputs":[{"name":"token","type":"address","internalType":"address"},{"name":"entryFee","type":"uint256","internalType":"uint256"},{"name":"maxPlayers","type":"uint16","internalType":"uint16"}],"outputs":[{"name":"","type":"uint256","internalType":"uint256"}],"stateMutability":"nonpayable"},{"type":"function","name":"devWallet","inputs":[],"outputs":[{"name":"","type":"address","internalType":"address"}],"stateMutability":"view"},{"type":"function","name":"eip712Domain","inputs":[],"outputs":[{"name":"fields","type":"bytes1","internalType":"bytes1"},{"name":"name","type":"string","internalType":"string"},{"name":"version","type":"string","internalType":"string"},{"name":"chainId","type":"uint256","internalType":"uint256"},{"name":"verifyingContract","type":"address","internalType":"address"},{"name":"salt","type":"bytes32","internalType":"bytes32"},{"name":"extensions","type":"uint256[]","internalType":"uint256[]"}],"stateMutability":"view"},{"type":"function","name":"emergencyEndLobby","inputs":[{"name":"lobbyId","type":"uint256","internalType":"uint256"},{"name":"winners","type":"address[]","internalType":"address[]"}],"outputs":[],"stateMutability":"nonpayable"},{"type":"function","name":"emergencyWithdraw","inputs":[{"name":"token","type":"address","internalType":"address"},{"name":"amount","type":"uint256","internalType":"uint256"}],"outputs":[],"stateMutability":"nonpayable"},{"type":"function","name":"endLobby","inputs":[{"name":"lobbyId","type":"uint256","internalType":"uint256"},{"name":"winners","type":"address[]","internalType":"address[]"},{"name":"signature","type":"bytes","internalType":"bytes"}],"outputs":[],"stateMutability":"nonpayable"},{"type":"function","name":"getLobbyInfo","inputs":[{"name":"lobbyId","type":"uint256","internalType":"uint256"}],"outputs":[{"name":"creator","type":"address","internalType":"address"},{"name":"token","type":"address","internalType":"address"},{"name":"entryFee","type":"uint256","internalType":"uint256"},{"name":"maxPlayers","type":"uint16","internalType":"uint16"},{"name":"state","type":"uint8","internalType":"enum UnoLobbyV2.LobbyState"},{"name":"players","type":"address[]","internalType":"address[]"},{"name":"createdAt","type":"uint256","internalType":"uint256"}],"stateMutability":"view"},{"type":"function","name":"getLobbyPlayers","inputs":[{"name":"lobbyId","type":"uint256","internalType":"uint256"}],"outputs":[{"name":"","type":"address[]","internalType":"address[]"}],"stateMutability":"view"},{"type":"function","name":"isPlayerInLobby","inputs":[{"name":"lobbyId","type":"uint256","internalType":"uint256"},{"name":"player","type":"address","internalType":"address"}],"outputs":[{"name":"","type":"bool","internalType":"bool"}],"stateMutability":"view"},{"type":"function","name":"joinLobby","inputs":[{"name":"lobbyId","type":"uint256","internalType":"uint256"}],"outputs":[],"stateMutability":"payable"},{"type":"function","name":"lobbies","inputs":[{"name":"","type":"uint256","internalType":"uint256"}],"outputs":[{"name":"creator","type":"address","internalType":"address"},{"name":"token","type":"address","internalType":"address"},{"name":"entryFee","type":"uint256","internalType":"uint256"},{"name":"maxPlayers","type":"uint16","internalType":"uint16"},{"name":"state","type":"uint8","internalType":"enum UnoLobbyV2.LobbyState"},{"name":"createdAt","type":"uint256","internalType":"uint256"}],"stateMutability":"view"},{"type":"function","name":"lobbyCount","inputs":[],"outputs":[{"name":"","type":"uint256","internalType":"uint256"}],"stateMutability":"view"},{"type":"function","name":"lobbyNonces","inputs":[{"name":"","type":"uint256","internalType":"uint256"}],"outputs":[{"name":"","type":"uint256","internalType":"uint256"}],"stateMutability":"view"},{"type":"function","name":"lockedFunds","inputs":[{"name":"","type":"address","internalType":"address"}],"outputs":[{"name":"","type":"uint256","internalType":"uint256"}],"stateMutability":"view"},{"type":"function","name":"owner","inputs":[],"outputs":[{"name":"","type":"address","internalType":"address"}],"stateMutability":"view"},{"type":"function","name":"pendingRefunds","inputs":[{"name":"","type":"address","internalType":"address"},{"name":"","type":"address","internalType":"address"}],"outputs":[{"name":"","type":"uint256","internalType":"uint256"}],"stateMutability":"view"},{"type":"function","name":"renounceOwnership","inputs":[],"outputs":[],"stateMutability":"nonpayable"},{"type":"function","name":"setDevWallet","inputs":[{"name":"_newDevWallet","type":"address","internalType":"address"}],"outputs":[],"stateMutability":"nonpayable"},{"type":"function","name":"setTrustedSigner","inputs":[{"name":"_newSigner","type":"address","internalType":"address"}],"outputs":[],"stateMutability":"nonpayable"},{"type":"function","name":"transferOwnership","inputs":[{"name":"newOwner","type":"address","internalType":"address"}],"outputs":[],"stateMutability":"nonpayable"},{"type":"function","name":"trustedSigner","inputs":[],"outputs":[{"name":"","type":"address","internalType":"address"}],"stateMutability":"view"},{"type":"event","name":"DevWalletUpdated","inputs":[{"name":"oldWallet","type":"address","indexed":true,"internalType":"address"},{"name":"newWallet","type":"address","indexed":true,"internalType":"address"}],"anonymous":false},{"type":"event","name":"EIP712DomainChanged","inputs":[],"anonymous":false},{"type":"event","name":"EmergencyWithdrawal","inputs":[{"name":"token","type":"address","indexed":true,"internalType":"address"},{"name":"amount","type":"uint256","indexed":false,"internalType":"uint256"},{"name":"to","type":"address","indexed":true,"internalType":"address"}],"anonymous":false},{"type":"event","name":"FeeTaken","inputs":[{"name":"lobbyId","type":"uint256","indexed":true,"internalType":"uint256"},{"name":"devWallet","type":"address","indexed":true,"internalType":"address"},{"name":"amount","type":"uint256","indexed":false,"internalType":"uint256"}],"anonymous":false},{"type":"event","name":"LobbyCancelled","inputs":[{"name":"lobbyId","type":"uint256","indexed":true,"internalType":"uint256"},{"name":"cancelledBy","type":"address","indexed":true,"internalType":"address"},{"name":"refundedPlayers","type":"uint256","indexed":false,"internalType":"uint256"}],"anonymous":false},{"type":"event","name":"LobbyCreated","inputs":[{"name":"lobbyId","type":"uint256","indexed":true,"internalType":"uint256"},{"name":"creator","type":"address","indexed":true,"internalType":"address"},{"name":"token","type":"address","indexed":false,"internalType":"address"},{"name":"entryFee","type":"uint256","indexed":false,"internalType":"uint256"},{"name":"maxPlayers","type":"uint16","indexed":false,"internalType":"uint16"}],"anonymous":false},{"type":"event","name":"LobbyEnded","inputs":[{"name":"lobbyId","type":"uint256","indexed":true,"internalType":"uint256"},{"name":"endedBy","type":"address","indexed":true,"internalType":"address"},{"name":"winners","type":"address[]","indexed":false,"internalType":"address[]"}],"anonymous":false},{"type":"event","name":"LobbyStarted","inputs":[{"name":"lobbyId","type":"uint256","indexed":true,"internalType":"uint256"},{"name":"playerCount","type":"uint256","indexed":false,"internalType":"uint256"}],"anonymous":false},{"type":"event","name":"OwnershipTransferred","inputs":[{"name":"previousOwner","type":"address","indexed":true,"internalType":"address"},{"name":"newOwner","type":"address","indexed":true,"internalType":"address"}],"anonymous":false},{"type":"event","name":"Payout","inputs":[{"name":"lobbyId","type":"uint256","indexed":true,"internalType":"uint256"},{"name":"to","type":"address","indexed":true,"internalType":"address"},{"name":"amount","type":"uint256","indexed":false,"internalType":"uint256"}],"anonymous":false},{"type":"event","name":"PlayerJoined","inputs":[{"name":"lobbyId","type":"uint256","indexed":true,"internalType":"uint256"},{"name":"player","type":"address","indexed":true,"internalType":"address"}],"anonymous":false},{"type":"event","name":"RefundClaimed","inputs":[{"name":"player","type":"address","indexed":true,"internalType":"address"},{"name":"token","type":"address","indexed":true,"internalType":"address"},{"name":"amount","type":"uint256","indexed":false,"internalType":"uint256"}],"anonymous":false},{"type":"event","name":"TrustedSignerUpdated","inputs":[{"name":"oldSigner","type":"address","indexed":true,"internalType":"address"},{"name":"newSigner","type":"address","indexed":true,"internalType":"address"}],"anonymous":false},{"type":"error","name":"AlreadyJoined","inputs":[]},{"type":"error","name":"ECDSAInvalidSignature","inputs":[]},{"type":"error","name":"ECDSAInvalidSignatureLength","inputs":[{"name":"length","type":"uint256","internalType":"uint256"}]},{"type":"error","name":"ECDSAInvalidSignatureS","inputs":[{"name":"s","type":"bytes32","internalType":"bytes32"}]},{"type":"error","name":"InvalidDevWallet","inputs":[]},{"type":"error","name":"InvalidEntryFee","inputs":[]},{"type":"error","name":"InvalidMaxPlayers","inputs":[]},{"type":"error","name":"InvalidShortString","inputs":[]},{"type":"error","name":"InvalidSigner","inputs":[]},{"type":"error","name":"InvalidWinners","inputs":[]},{"type":"error","name":"LobbyFull","inputs":[]},{"type":"error","name":"LobbyNotOpen","inputs":[]},{"type":"error","name":"LobbyNotStarted","inputs":[]},{"type":"error","name":"NoFundsToWithdraw","inputs":[]},{"type":"error","name":"NoRefundPending","inputs":[]},{"type":"error","name":"NotEnoughPlayers","inputs":[]},{"type":"error","name":"OwnableInvalidOwner","inputs":[{"name":"owner","type":"address","internalType":"address"}]},{"type":"error","name":"OwnableUnauthorizedAccount","inputs":[{"name":"account","type":"address","internalType":"address"}]},{"type":"error","name":"ReentrancyGuardReentrantCall","inputs":[]},{"type":"error","name":"SafeERC20FailedOperation","inputs":[{"name":"token","type":"address","internalType":"address"}]},{"type":"error","name":"StringTooLong","inputs":[{"name":"str","type":"string","internalType":"string"}]}],"bytecode":{"object":"0x610160604052348015610010575f5ffd5b50604051612a5b380380612a5b83398101604081905261002f916102ce565b604080518082018252600a8152692ab737a637b1313cab1960b11b602080830191909152825180840190935260018352603160f81b9083015290846001600160a01b03811661009857604051631e4fbdf760e01b81525f60048201526024015b60405180910390fd5b6100a1816101f5565b5060017f9b779b17422d0df92223018b32b4d1fa46e071723d6817e2486d003becc55f00556100d1826001610244565b610120526100e0816002610244565b61014052815160208084019190912060e052815190820120610100524660a05261016c60e05161010051604080517f8b73c3c69bb8fe3d512ecc4cf759cc79239f7b179b0ffacaa9a75d522b39400f60208201529081019290925260608201524660808201523060a08201525f9060c00160405160208183030381529060405280519060200120905090565b60805250503060c0526001600160a01b03821661019c5760405163ef241aef60e01b815260040160405180910390fd5b6001600160a01b0381166101c357604051632057875960e21b815260040160405180910390fd5b600480546001600160a01b039384166001600160a01b03199182161790915560058054929093169116179055506104b8565b5f80546001600160a01b038381166001600160a01b0319831681178455604051919092169283917f8be0079c531659141344cd1fd0a4f28419497f9722a3daafe3b4186f6b6457e09190a35050565b5f60208351101561025f5761025883610276565b9050610270565b8161026a84826103a6565b5060ff90505b92915050565b5f5f829050601f815111156102a0578260405163305a27a960e01b815260040161008f9190610460565b80516102ab82610495565b179392505050565b80516001600160a01b03811681146102c9575f5ffd5b919050565b5f5f5f606084860312156102e0575f5ffd5b6102e9846102b3565b92506102f7602085016102b3565b9150610305604085016102b3565b90509250925092565b634e487b7160e01b5f52604160045260245ffd5b600181811c9082168061033657607f821691505b60208210810361035457634e487b7160e01b5f52602260045260245ffd5b50919050565b601f8211156103a157805f5260205f20601f840160051c8101602085101561037f5750805b601f840160051c820191505b8181101561039e575f815560010161038b565b50505b505050565b81516001600160401b038111156103bf576103bf61030e565b6103d3816103cd8454610322565b8461035a565b6020601f821160018114610405575f83156103ee5750848201515b5f19600385901b1c1916600184901b17845561039e565b5f84815260208120601f198516915b828110156104345787850151825560209485019460019092019101610414565b508482101561045157868401515f19600387901b60f8161c191681555b50505050600190811b01905550565b602081525f82518060208401528060208501604085015e5f604082850101526040601f19601f83011684010191505092915050565b80516020808301519190811015610354575f1960209190910360031b1b16919050565b60805160a05160c05160e0516101005161012051610140516125526105095f395f611ae101525f611ab401525f611a5d01525f611a3501525f61199001525f6119ba01525f6119e401526125525ff3fe60806040526004361061017d575f3560e01c80638da5cb5b116100cd578063bffa55d511610087578063eff3d30611610062578063eff3d306146104f0578063f16277bb14610505578063f2fde38b14610531578063f74d548014610550575f5ffd5b8063bffa55d51461049f578063cb89294c146104be578063e9173b3a146104dd575f5ffd5b80638da5cb5b146103b45780638ea5220f146103e457806395ccea6714610403578063a4a9a4ad14610422578063b7f21e3114610441578063b86247d714610474575f5ffd5b806356a1c70111610138578063715018a611610113578063715018a614610318578063846562761461032c57806384b0196e146103575780638c2398e61461037e575f5ffd5b806356a1c7011461026457806365ec803a146102835780636e8fb4c6146102a2575f5ffd5b80620b46f8146101885780631f53ac02146101af57806329b04688146101d05780633644e515146101ef57806339cae11c14610203578063559ab8cc14610235575f5ffd5b3661018457005b5f5ffd5b348015610193575f5ffd5b5061019c600581565b6040519081526020015b60405180910390f35b3480156101ba575f5ffd5b506101ce6101c9366004611fb0565b61056f565b005b3480156101db575f5ffd5b506101ce6101ea366004612018565b6105ef565b3480156101fa575f5ffd5b5061019c610a62565b34801561020e575f5ffd5b5061022261021d3660046120bc565b610a70565b6040516101a6979695949392919061214a565b348015610240575f5ffd5b5061025461024f3660046121a5565b610b3a565b60405190151581526020016101a6565b34801561026f575f5ffd5b506101ce61027e366004611fb0565b610bac565b34801561028e575f5ffd5b506101ce61029d3660046121cf565b610c2c565b3480156102ad575f5ffd5b506103066102bc3660046120bc565b60066020525f9081526040902080546001820154600283015460038401546005909401546001600160a01b03938416949390921692909161ffff82169162010000900460ff169086565b6040516101a696959493929190612217565b348015610323575f5ffd5b506101ce610f7a565b348015610337575f5ffd5b5061019c6103463660046120bc565b60076020525f908152604090205481565b348015610362575f5ffd5b5061036b610fbe565b6040516101a6979695949392919061228c565b348015610389575f5ffd5b5061019c610398366004612322565b600960209081525f928352604080842090915290825290205481565b3480156103bf575f5ffd5b505f546001600160a01b03165b6040516001600160a01b0390911681526020016101a6565b3480156103ef575f5ffd5b506004546103cc906001600160a01b031681565b34801561040e575f5ffd5b506101ce61041d36600461234a565b611000565b34801561042d575f5ffd5b506101ce61043c3660046120bc565b611180565b34801561044c575f5ffd5b5061019c7f59d5c27dea179a08333fc066a2b3afc1969eb41548f7ddd47a2d50924283a5a581565b34801561047f575f5ffd5b5061019c61048e366004611fb0565b60086020525f908152604090205481565b3480156104aa575f5ffd5b506101ce6104b9366004611fb0565b611332565b3480156104c9575f5ffd5b5061019c6104d8366004612372565b611425565b6101ce6104eb3660046120bc565b61153b565b3480156104fb575f5ffd5b5061019c60035481565b348015610510575f5ffd5b5061052461051f3660046120bc565b611784565b6040516101a691906123b5565b34801561053c575f5ffd5b506101ce61054b366004611fb0565b6117f0565b34801561055b575f5ffd5b506005546103cc906001600160a01b031681565b61057761182a565b6001600160a01b03811661059e5760405163ef241aef60e01b815260040160405180910390fd5b600480546001600160a01b038381166001600160a01b0319831681179093556040519116919082907f0db17895a9d092fb3ca24d626f2150dd80c185b0706b36f1040ee239f56cb871905f90a35050565b6105f7611858565b5f858152600660205260409020600160038281015462010000900460ff1690811115610625576106256120d3565b1461064357604051637a159c5560e11b815260040160405180910390fd5b6004810154600211156106695760405163f770074360e01b815260040160405180910390fd5b6001841461068a5760405163cfdacc2b60e01b815260040160405180910390fd5b5f805b60048301548110156107085786865f8181106106ab576106ab6123c7565b90506020020160208101906106c09190611fb0565b6001600160a01b03168360040182815481106106de576106de6123c7565b5f918252602090912001546001600160a01b0316036107005760019150610708565b60010161068d565b50806107275760405163cfdacc2b60e01b815260040160405180910390fd5b5f6107d07f59d5c27dea179a08333fc066a2b3afc1969eb41548f7ddd47a2d50924283a5a58989895f81811061075f5761075f6123c7565b90506020020160208101906107749190611fb0565b5f8c8152600760209081526040918290205491516107b595949392910193845260208401929092526001600160a01b03166040830152606082015260800190565b60405160208183030381529060405280519060200120611873565b600554604080516020601f89018190048102820181019092528781529293506001600160a01b03909116916108219184919089908990819084018382808284375f9201919091525061189f92505050565b6001600160a01b03161461084857604051632057875960e21b815260040160405180910390fd5b5f888152600760205260408120805491610861836123ef565b909155505060038301805462ff0000191662020000179055600483015460028401545f9161088e91612407565b90505f606461089e600584612407565b6108a8919061241e565b90505f6108b5828461243d565b60018701546001600160a01b03165f908152600860205260408120805492935085929091906108e590849061243d565b9091555050811561095457600186015460045461090f916001600160a01b039081169116846118c7565b6004546040518381526001600160a01b03909116908c907f92f3bfc40bb172da28c752f0e306286ffd8044dacf3617d8fa730bb2cf57537b9060200160405180910390a35b6001860154610991906001600160a01b03168b8b5f81610976576109766123c7565b905060200201602081019061098b9190611fb0565b836118c7565b89895f8181106109a3576109a36123c7565b90506020020160208101906109b89190611fb0565b6001600160a01b03168b7f5f7341a552ae2d452b071917104c05fbac3663936a69be768a05c40605056e7d836040516109f391815260200190565b60405180910390a3336001600160a01b03168b7fe7d1b79d5f7ed90d7715887f7c54f2efb303fc3ea48b770c52c2fab17ffa5c178c8c604051610a37929190612450565b60405180910390a3505050505050610a5b60015f5160206124fd5f395f51905f5255565b5050505050565b5f610a6b611984565b905090565b5f818152600660209081526040808320805460018201546002830154600384015460058501546004860180548851818b0281018b019099528089528a998a998a998a996060998b9992986001600160a01b03928316989290911696929561ffff8216956201000090920460ff169491849190830182828015610b1957602002820191905f5260205f20905b81546001600160a01b03168152600190910190602001808311610afb575b50505050509150975097509750975097509750975050919395979092949650565b5f828152600660205260408120815b6004820154811015610ba057836001600160a01b0316826004018281548110610b7457610b746123c7565b5f918252602090912001546001600160a01b031603610b9857600192505050610ba6565b600101610b49565b505f9150505b92915050565b610bb461182a565b6001600160a01b038116610bdb57604051632057875960e21b815260040160405180910390fd5b600580546001600160a01b038381166001600160a01b0319831681179093556040519116919082907f4a297cf5d32586f80d2b0708a39d2da1f46e6ae7722171e1c51dfd685b5b8aa8905f90a35050565b610c3461182a565b610c3c611858565b5f838152600660205260409020600260038281015462010000900460ff1690811115610c6a57610c6a6120d3565b1480610c9357506003808281015462010000900460ff1690811115610c9157610c916120d3565b145b15610cde5760405162461bcd60e51b8152602060048201526016602482015275131bd8989e48185b1c9958591e48199a5b9a5cda195960521b60448201526064015b60405180910390fd5b60018214610cff5760405163cfdacc2b60e01b815260040160405180910390fd5b5f805b6004830154811015610d7d5784845f818110610d2057610d206123c7565b9050602002016020810190610d359190611fb0565b6001600160a01b0316836004018281548110610d5357610d536123c7565b5f918252602090912001546001600160a01b031603610d755760019150610d7d565b600101610d02565b5080610d9c5760405163cfdacc2b60e01b815260040160405180910390fd5b60038201805462ff0000191662020000179055600482015460028301545f91610dc491612407565b90505f6064610dd4600584612407565b610dde919061241e565b90505f610deb828461243d565b60018601546001600160a01b03165f90815260086020526040812080549293508592909190610e1b90849061243d565b90915550508115610e8a576001850154600454610e45916001600160a01b039081169116846118c7565b6004546040518381526001600160a01b039091169089907f92f3bfc40bb172da28c752f0e306286ffd8044dacf3617d8fa730bb2cf57537b9060200160405180910390a35b6001850154610eac906001600160a01b031688885f81610976576109766123c7565b86865f818110610ebe57610ebe6123c7565b9050602002016020810190610ed39190611fb0565b6001600160a01b0316887f5f7341a552ae2d452b071917104c05fbac3663936a69be768a05c40605056e7d83604051610f0e91815260200190565b60405180910390a3336001600160a01b0316887fe7d1b79d5f7ed90d7715887f7c54f2efb303fc3ea48b770c52c2fab17ffa5c178989604051610f52929190612450565b60405180910390a35050505050610f7560015f5160206124fd5f395f51905f5255565b505050565b610f8261182a565b60405162461bcd60e51b815260206004820152601160248201527014995b9bdd5b98d948191a5cd8589b1959607a1b6044820152606401610cd5565b5f6060805f5f5f6060610fcf611aad565b610fd7611ada565b604080515f80825260208201909252600f60f81b9b939a50919850469750309650945092509050565b61100861182a565b611010611858565b805f03611030576040516367e3990d60e01b815260040160405180910390fd5b5f6001600160a01b038316156110ab576040516370a0823160e01b81523060048201526001600160a01b038416906370a0823190602401602060405180830381865afa158015611082573d5f5f3e3d5ffd5b505050506040513d601f19601f820116820180604052508101906110a6919061249a565b6110ad565b475b6001600160a01b0384165f9081526008602052604090205490915082906110d4908361243d565b10156110f3576040516367e3990d60e01b815260040160405180910390fd5b61110e836111085f546001600160a01b031690565b846118c7565b5f546001600160a01b03166001600160a01b0316836001600160a01b03167f3ab9db27a4cdd8c603a752b62d5fbd93b4b3509fe2596708e9688e42bbac35768460405161115d91815260200190565b60405180910390a35061117c60015f5160206124fd5f395f51905f5255565b5050565b611188611858565b5f8181526006602052604081209060038281015462010000900460ff16908111156111b5576111b56120d3565b146111d3576040516374f165fb60e11b815260040160405180910390fd5b80546001600160a01b031633148015906111f757505f546001600160a01b03163314155b156112445760405162461bcd60e51b815260206004820181905260248201527f4f6e6c792063726561746f72206f72206f776e65722063616e2063616e63656c6044820152606401610cd5565b60038101805462ff000019166203000017905560048101545f5b818110156112df57600283015460018401546001600160a01b03165f9081526009602052604081206004860180549192918590811061129f5761129f6123c7565b5f9182526020808320909101546001600160a01b03168352820192909252604001812080549091906112d29084906124b1565b909155505060010161125e565b50604051818152339084907f901c4b3ed78d5e3b588d41243171cd614027f155b6ab58c0af1b6c75ca66d1e19060200160405180910390a3505061132f60015f5160206124fd5f395f51905f5255565b50565b61133a611858565b6001600160a01b0381165f9081526009602090815260408083203384529091528120549081900361137e5760405163a94f6be360e01b815260040160405180910390fd5b6001600160a01b0382165f81815260096020908152604080832033845282528083208390559282526008905290812080548392906113bd90849061243d565b909155506113ce90508233836118c7565b6040518181526001600160a01b0383169033907f39bed68a008a68cbf907d7ff6bc3629912af6516cb837cfa3f871ad9f2b8a9449060200160405180910390a35061132f60015f5160206124fd5f395f51905f5255565b5f825f0361144657604051636fe6a4c960e01b815260040160405180910390fd5b60028261ffff16108061145d575060088261ffff16115b1561147b576040516365d4be2960e01b815260040160405180910390fd5b5f60035f815461148a906123ef565b91829055505f8181526006602090815260409182902080546001600160a01b03199081163390811783556001830180546001600160a01b038d16931683179055600283018a905560038301805462ffffff191661ffff8b1690811790915542600585015585519283529382018a90529381019290925292935083907fe6244f09125e12930e4492482ba0a7cd3a2114bfe9a97243b04487569e69019b9060600160405180910390a350949350505050565b611543611858565b5f8181526006602052604081209060038281015462010000900460ff1690811115611570576115706120d3565b1461158e576040516374f165fb60e11b815260040160405180910390fd5b6003810154600482015461ffff909116116115bc5760405163be02dee760e01b815260040160405180910390fd5b5f5b600482015481101561162257336001600160a01b03168260040182815481106115e9576115e96123c7565b5f918252602090912001546001600160a01b03160361161a57604051621d934160e11b815260040160405180910390fd5b6001016115be565b5060018101546001600160a01b031661165e578060020154341461165957604051636fe6a4c960e01b815260040160405180910390fd5b611681565b60028101546001820154611681916001600160a01b039091169033903090611b07565b600481018054600181810183555f928352602080842090920180546001600160a01b031916331790556002840154908401546001600160a01b031683526008909152604082208054919290916116d89084906124b1565b9091555050604051339083907f87969bc7faf902221a147b95ceba76e011c5efb0339a0a8ee7a2bb82d9cfbbd6905f90a36003810154600482015461ffff909116900361176d5760038101805462ff00001916620100001790556004810154604080519182525183917fdc612c71c95c02750099361afeddf97cce694622888876cb8c6bfd6e4494ce69919081900360200190a25b5061132f60015f5160206124fd5f395f51905f5255565b5f818152600660209081526040918290206004018054835181840281018401909452808452606093928301828280156117e457602002820191905f5260205f20905b81546001600160a01b031681526001909101906020018083116117c6575b50505050509050919050565b6117f861182a565b6001600160a01b03811661182157604051631e4fbdf760e01b81525f6004820152602401610cd5565b61132f81611b3d565b5f546001600160a01b031633146118565760405163118cdaa760e01b8152336004820152602401610cd5565b565b611860611b8c565b60025f5160206124fd5f395f51905f5255565b5f610ba661187f611984565b8360405161190160f01b8152600281019290925260228201526042902090565b5f5f5f5f6118ad8686611bbb565b9250925092506118bd8282611c04565b5090949350505050565b6001600160a01b038316611970575f826001600160a01b0316826040515f6040518083038185875af1925050503d805f811461191e576040519150601f19603f3d011682016040523d82523d5f602084013e611923565b606091505b505090508061196a5760405162461bcd60e51b8152602060048201526013602482015272115512081d1c985b9cd9995c8819985a5b1959606a1b6044820152606401610cd5565b50505050565b610f756001600160a01b0384168383611cbc565b5f306001600160a01b037f0000000000000000000000000000000000000000000000000000000000000000161480156119dc57507f000000000000000000000000000000000000000000000000000000000000000046145b15611a0657507f000000000000000000000000000000000000000000000000000000000000000090565b610a6b604080517f8b73c3c69bb8fe3d512ecc4cf759cc79239f7b179b0ffacaa9a75d522b39400f60208201527f0000000000000000000000000000000000000000000000000000000000000000918101919091527f000000000000000000000000000000000000000000000000000000000000000060608201524660808201523060a08201525f9060c00160405160208183030381529060405280519060200120905090565b6060610a6b7f00000000000000000000000000000000000000000000000000000000000000006001611cf1565b6060610a6b7f00000000000000000000000000000000000000000000000000000000000000006002611cf1565b611b15848484846001611d9a565b61196a57604051635274afe760e01b81526001600160a01b0385166004820152602401610cd5565b5f80546001600160a01b038381166001600160a01b0319831681178455604051919092169283917f8be0079c531659141344cd1fd0a4f28419497f9722a3daafe3b4186f6b6457e09190a35050565b5f5160206124fd5f395f51905f525460020361185657604051633ee5aeb560e01b815260040160405180910390fd5b5f5f5f8351604103611bf2576020840151604085015160608601515f1a611be488828585611e07565b955095509550505050611bfd565b505081515f91506002905b9250925092565b5f826003811115611c1757611c176120d3565b03611c20575050565b6001826003811115611c3457611c346120d3565b03611c525760405163f645eedf60e01b815260040160405180910390fd5b6002826003811115611c6657611c666120d3565b03611c875760405163fce698f760e01b815260048101829052602401610cd5565b6003826003811115611c9b57611c9b6120d3565b0361117c576040516335e2f38360e21b815260048101829052602401610cd5565b611cc98383836001611ecf565b610f7557604051635274afe760e01b81526001600160a01b0384166004820152602401610cd5565b606060ff8314611d0b57611d0483611f31565b9050610ba6565b818054611d17906124c4565b80601f0160208091040260200160405190810160405280929190818152602001828054611d43906124c4565b8015611d8e5780601f10611d6557610100808354040283529160200191611d8e565b820191905f5260205f20905b815481529060010190602001808311611d7157829003601f168201915b50505050509050610ba6565b6040516323b872dd60e01b5f8181526001600160a01b038781166004528616602452604485905291602083606481808c5af1925060015f51148316611df6578383151615611dea573d5f823e3d81fd5b5f883b113d1516831692505b604052505f60605295945050505050565b5f80807f7fffffffffffffffffffffffffffffff5d576e7357a4501ddfe92f46681b20a0841115611e4057505f91506003905082611ec5565b604080515f808252602082018084528a905260ff891692820192909252606081018790526080810186905260019060a0016020604051602081039080840390855afa158015611e91573d5f5f3e3d5ffd5b5050604051601f1901519150506001600160a01b038116611ebc57505f925060019150829050611ec5565b92505f91508190505b9450945094915050565b60405163a9059cbb60e01b5f8181526001600160a01b038616600452602485905291602083604481808b5af1925060015f51148316611f25578383151615611f19573d5f823e3d81fd5b5f873b113d1516831692505b60405250949350505050565b60605f611f3d83611f6e565b6040805160208082528183019092529192505f91906020820181803683375050509182525060208101929092525090565b5f60ff8216601f811115610ba657604051632cd44ac360e21b815260040160405180910390fd5b80356001600160a01b0381168114611fab575f5ffd5b919050565b5f60208284031215611fc0575f5ffd5b611fc982611f95565b9392505050565b5f5f83601f840112611fe0575f5ffd5b50813567ffffffffffffffff811115611ff7575f5ffd5b6020830191508360208260051b8501011115612011575f5ffd5b9250929050565b5f5f5f5f5f6060868803121561202c575f5ffd5b85359450602086013567ffffffffffffffff811115612049575f5ffd5b61205588828901611fd0565b909550935050604086013567ffffffffffffffff811115612074575f5ffd5b8601601f81018813612084575f5ffd5b803567ffffffffffffffff81111561209a575f5ffd5b8860208284010111156120ab575f5ffd5b959894975092955050506020019190565b5f602082840312156120cc575f5ffd5b5035919050565b634e487b7160e01b5f52602160045260245ffd5b6004811061210357634e487b7160e01b5f52602160045260245ffd5b9052565b5f8151808452602084019350602083015f5b828110156121405781516001600160a01b0316865260209586019590910190600101612119565b5093949350505050565b6001600160a01b038881168252871660208201526040810186905261ffff8516606082015261217c60808201856120e7565b60e060a08201525f61219160e0830185612107565b90508260c083015298975050505050505050565b5f5f604083850312156121b6575f5ffd5b823591506121c660208401611f95565b90509250929050565b5f5f5f604084860312156121e1575f5ffd5b83359250602084013567ffffffffffffffff8111156121fe575f5ffd5b61220a86828701611fd0565b9497909650939450505050565b6001600160a01b038781168252861660208201526040810185905261ffff8416606082015260c0810161224d60808301856120e7565b8260a0830152979650505050505050565b5f81518084528060208401602086015e5f602082860101526020601f19601f83011685010191505092915050565b60ff60f81b8816815260e060208201525f6122aa60e083018961225e565b82810360408401526122bc818961225e565b606084018890526001600160a01b038716608085015260a0840186905283810360c0850152845180825260208087019350909101905f5b818110156123115783518352602093840193909201916001016122f3565b50909b9a5050505050505050505050565b5f5f60408385031215612333575f5ffd5b61233c83611f95565b91506121c660208401611f95565b5f5f6040838503121561235b575f5ffd5b61236483611f95565b946020939093013593505050565b5f5f5f60608486031215612384575f5ffd5b61238d84611f95565b925060208401359150604084013561ffff811681146123aa575f5ffd5b809150509250925092565b602081525f611fc96020830184612107565b634e487b7160e01b5f52603260045260245ffd5b634e487b7160e01b5f52601160045260245ffd5b5f60018201612400576124006123db565b5060010190565b8082028115828204841417610ba657610ba66123db565b5f8261243857634e487b7160e01b5f52601260045260245ffd5b500490565b81810381811115610ba657610ba66123db565b602080825281018290525f8360408301825b85811015612490576001600160a01b0361247b84611f95565b16825260209283019290910190600101612462565b5095945050505050565b5f602082840312156124aa575f5ffd5b5051919050565b80820180821115610ba657610ba66123db565b600181811c908216806124d857607f821691505b6020821081036124f657634e487b7160e01b5f52602260045260245ffd5b5091905056fe9b779b17422d0df92223018b32b4d1fa46e071723d6817e2486d003becc55f00a2646970667358221220c166e95956e60231ce1936f59d956fe6270fe6815e722fbb2282334e0502c35c64736f6c634300081c0033","linkReferences":{}},"methodIdentifiers":{"DOMAIN_SEPARATOR()":"3644e515","END_LOBBY_TYPEHASH()":"b7f21e31","FEE_PERCENTAGE()":"000b46f8","cancelLobby(uint256)":"a4a9a4ad","claimRefund(address)":"bffa55d5","createLobby(address,uint256,uint16)":"cb89294c","devWallet()":"8ea5220f","eip712Domain()":"84b0196e","emergencyEndLobby(uint256,address[])":"65ec803a","emergencyWithdraw(address,uint256)":"95ccea67","endLobby(uint256,address[],bytes)":"29b04688","getLobbyInfo(uint256)":"39cae11c","getLobbyPlayers(uint256)":"f16277bb","isPlayerInLobby(uint256,address)":"559ab8cc","joinLobby(uint256)":"e9173b3a","lobbies(uint256)":"6e8fb4c6","lobbyCount()":"eff3d306","lobbyNonces(uint256)":"84656276","lockedFunds(address)":"b86247d7","owner()":"8da5cb5b","pendingRefunds(address,address)":"8c2398e6","renounceOwnership()":"715018a6","setDevWallet(address)":"1f53ac02","setTrustedSigner(address)":"56a1c701","transferOwnership(address)":"f2fde38b","trustedSigner()":"f74d5480"},"id":45}